:020000040800F2
:10000000B1AA010000000000000000000000000094
:1000100000000000000000000000000000000000E0
:1000200000000000000000000000000000000000D0
:1000300000000000000000000000000000000000C0
:1000400000000000000000000000000000000000B0
:1000500000000000000000000000000000000000A0
:100060000000000000000000000000000000000090
:100070000000000000000000000000000000000080
:100080000000000000000000000000000000000070
:100090000000000000000000000000000000000060
:1000A0000000000000000000000000000000000050
:1000B0000000000000000000000000000000000040
:1000C0000000000000000000000000000000000030
:1000D0000000000000000000000000000000000020
:1000E0000000000000000000000000000000000010
:1000F0000000000000000000000000000000000000
:1001000000000000000000000000000000000000EF
:1001100000000000000000000000000000000000DF
:1001200000000000000000000000000000000000CF
:1001300000000000000000000000000000000000BF
:1001400000000000000000000000000000000000AF
:100150000000000000000000000000007370043088
:10016000170500001305C5FF8545F605637BB5003F
:1001700089816378B500170500001305C5002E9529
:1001800002859302002073A0027D970200009382F3
:1001900062E773907230970200009382624E739010
:1001A000C27E73E0C07E970200009382A2457390E6
:1001B0005230970100189381E16A178100181301EA
:1001C00061E417250000130525DE970500189385C7
:1001D00065E317060018130666E963FAC500832273
:1001E000050023A0550011059105E3EAC5FE17059A
:1001F00000181305A5E79385018A6377B5002320CE
:1002000005001105E36DB5FE73F0023217250000FD
:100210001305A5B5EF10D031EF1090380145814599
:10022000EF00903E6F10703101A073E002328280C7
:0802300073F00232828000002D
:100240000A0000000A50726F6772616D2068617366
:1002500020657869746564207769746820636F64C9
:10026000653A0000307800006E6D690A00000000F9
:10027000747261700A000000000000000040AF408E
:10028000740F0000F80D0000080F0000100F0000B0
:10029000080F0000280E0000080F0000100F0000DB
:1002A000F80D0000F80D0000280E0000100F0000EF
:1002B0006A0F00006A0F00006A0F0000280E00009D
:1002C000681500005E1400005E1400005C1400005D
:1002D00064140000641400002A1400005C14000080
:1002E000641400002A140000641400005C14000070
:1002F0005415000054150000541500002A14000085
:1003000000010202030303030404040404040404BC
:10031000050505050505050505050505050505058D
:10032000060606060606060606060606060606066D
:10033000060606060606060606060606060606065D
:10034000070707070707070707070707070707073D
:10035000070707070707070707070707070707072D
:10036000070707070707070707070707070707071D
:10037000070707070707070707070707070707070D
:1003800008080808080808080808080808080808ED
:1003900008080808080808080808080808080808DD
:1003A00008080808080808080808080808080808CD
:1003B00008080808080808080808080808080808BD
:1003C00008080808080808080808080808080808AD
:1003D000080808080808080808080808080808089D
:1003E000080808080808080808080808080808088D
:1003F000080808080808080808080808080808087D
:10040000397106DE22DC80002326A4FCB707000831
:1004100083A84724138747240328470013874724CA
:100420000847138747244C4713874724104B1387EB
:100430004724544B13874724184F232814FD232A9D
:1004400004FD232CA4FC232EB4FC2320C4FE232271
:10045000D4FE2324E4FE9387472403D7C701231641
:10046000E4FE83C7E7012307F4FE930704FD794602
:10047000BE850945EF10B0198327C4FCBE85094528
:10048000D1200546B7070008938507240945EF10DA
:10049000101801A0797106D622D40018232EA4FCCE
:1004A000232CB4FC232AC4FC832784FD2324F4FEDC
:1004B000232604FE1DA8032784FE8327C4FEBA97C3
:1004C00083C707003E853D28032784FE8327C4FE9B
:1004D000BA9703C70700A9476314F70035451D20E5
:1004E0008327C4FE85072326F4FE0327C4FE832743
:1004F00044FDE362F7FC832744FD3E85B25022545D
:1005000045618280011106CE22CC00102326A4FE74
:100510008327C4FE93F7F70FBE85B74701401385C5
:100520000780052D01009D45B747014013850780D1
:10053000A925AA87EDDB8327C4FE3E85F2406244ED
:1005400005618280797106D622D40018232EA4FC7E
:10055000232CB4FC0946B7070008938547260325DA
:10056000C4FDEF10D00AA147A307F4FEA5A8834756
:10057000F4FEFD172307F4FE8347E4FE8A073D4798
:10058000B317F7003E87832784FD7D8F8347E4FE02
:100590008A07B357F700A306F4FE0347D4FEA54726
:1005A00063EBE7008347D4FE9387070393F7F70FC6
:1005B000E207E18709A88347D4FE9387770393F77F
:1005C000F70FE207E1872306F4FE9307C4FE054612
:1005D000BE850325C4FDEF1090038347F4FEFD178D
:1005E000A307F4FE8347F4FED9F30100B25022546E
:1005F0004561828000000000000000000000000053
:100600005D7106C012C216C41AC61EC82ACA2ECCF4
:1006100032CE36D03AD23ED442D646D872DA76DCE2
:100620007ADEFEC0F322103496C0F322003096C268
:10063000F322407C96C4732520348A85F9208642B3
:1006400073901234964273900230A6427390427CAB
:1006500082401242A2423243C2435245E2457246B0
:1006600082561257A2573258C258525EE25E725FEB
:10067000864F616173002030000000005D7106C08C
:1006800012C216C41AC61EC82ACA2ECC32CE36D002
:100690003AD23ED442D646D872DA76DC7ADEFEC052
:1006A00073D0E87E7350F97E73D0B97EF390D07E1C
:1006B00073700430B6427390427CA6427390123439
:1006C00096427390223482401242A2423243C24385
:1006D0005245E245724682561257A2573258C258C6
:1006E000525EE25E725F864F61617300203041119D
:1006F00006C622C400081546B7070008938587265A
:100700000545EF10C0700545E539011106CE22CC34
:1007100000102326A4FE2324B4FE0327C4FE85670D
:10072000FD176313F700E1371546B70700089385F7
:1007300007270545EF10A06D8327C4FE3E85C9310C
:10074000411106C622C400084921130570055D2821
:10075000212AE13C0100B240224441018280411142
:1007600022C600080100324441018280411122C6A4
:100770000008B70700D19C433E8532444101828086
:10078000411122C60008B70700D191079C433E855E
:10079000324441018280397106DE22DC4ADA4ED8C9
:1007A00052D656D45AD25ED062CE66CC8000C93FB3
:1007B0002326A4FC653F2324A4FCD9372A8783275A
:1007C000C4FCE396E7FE8327C4FC3E8C814C93195E
:1007D0000C000149832784FC3E8A814A336B49011E
:1007E000B3EB5901DA875E883E85C285F2506254C8
:1007F0005259C259325AA25A125B825B724CE24C75
:1008000021618280797122D60018232EA4FCB707BB
:1008100000D223800700B70700D2AD07238007006E
:10082000B71700D22324F4FE8327C4FD92070327C1
:1008300084FEBA972322F4FE832784FE2326F4FE47
:1008400011A88327C4FE23A007008327C4FEC10785
:100850002326F4FE0327C4FE832744FEE363F7FE4A
:100860000100325445618280011122CE0010F3272D
:1008700050302326F4FE8327C4FE2324F4FE83276E
:1008800084FE93F707FC2324F4FE832784FE93E77A
:1008900037002324F4FE832784FE73905730010031
:1008A000724405618280797122D60018232EA4FC3F
:1008B000232CB4FC232AC4FC2328D4FC232404FEC8
:1008C000232204FE832784FDBD8B2324F4FE83278B
:1008D00084FDC18B81CB032784FE832744FDD98F00
:1008E0002324F4FE231704FE4DA88357E4FE054796
:1008F0003317F700832704FDF98FD9CB8327C4FD75
:100900009C432322F4FE8357E4FE8A073D47B31736
:10091000F70093C7F7FF032744FEF98F2322F4FE65
:100920008357E4FE8A07032784FEB317F7000327E3
:1009300044FED98F2322F4FE032784FD930780020F
:100940006310F7028357E4FE05473317F700832748
:10095000C4FDD107BE86832704FDF98F9CC225A064
:10096000032784FD93078004631FF7008357E4FE89
:1009700005473317F7008327C4FDC107BE868327C9
:1009800004FDF98F9CC28327C4FD032744FE98C34E
:100990008357E4FE85072317F4FE0357E4FE9D47C3
:1009A000E3F5E7F4A1472317F4FEE1A08357E4FE43
:1009B00005473317F700832704FDF98FD5C7832731
:1009C000C4FD91079C432322F4FE0357E4FEB707BE
:1009D0000040E117BA978A073D47B317F70093C75E
:1009E000F7FF032744FEF98F2322F4FE0357E4FEAA
:1009F000B7070040E117BA978A07032784FEB317A9
:100A0000F700032744FED98F2322F4FE032784FD39
:100A1000930780026310F7028357E4FE05473317FC
:100A2000F7008327C4FDD107BE86832704FDF98F15
:100A30009CC225A0032784FD93078004631FF70051
:100A40008357E4FE05473317F7008327C4FDC1072A
:100A5000BE86832704FDF98F9CC28327C4FD9107BE
:100A60003E87832744FE1CC38357E4FE8507231774
:100A7000F4FE0357E4FEBD47E3FAE7F20100325407
:100A800045618280011122CE00102326A4FE23247A
:100A9000B4FE8327C4FED1073E87832784FE1CC390
:100AA0000100724405618280011122CE00102326CC
:100AB000A4FE2324B4FE2322C4FE832744FE89CB54
:100AC0008327C4FEC1073E87832784FE1CC301A879
:100AD0008327C4FED1073E87832784FE1CC3010001
:100AE000724405618280011122CE00102326A4FEEB
:100AF0002324B4FE8327C4FEA1079843832784FEE2
:100B0000F98F99C3854711A081473E8572440561DD
:100B10008280011122CE00102326A4FE8327C4FE6A
:100B200013D76700B7170240BA9798438327C4FECC
:100B3000FD8B8546B397F6008326C4FE13D6660068
:100B4000B7160240B296D98F9CC20100724405616B
:100B50008280011122CE00102326A4FE2324B4FE9D
:100B60008327C4FE91073E87832784FE93F7F71FF0
:100B70001CC30100724405618280011122CE001065
:100B80002326A4FE2324B4FE832784FE998313F72F
:100B9000F73F8327C4FEBA979843832784FEFD8BD3
:100BA000B357F700858B99C3854711A081473E85D0
:100BB000724405618280411106C622C4000855288E
:100BC0000100B240224441018280411106C622C484
:100BD0000008B71702409843B71702401367170081
:100BE00098C3B717024091079443B7170240910783
:100BF0003707FFE03107758F98C3B717024094435A
:100C0000B71702403707F7FE7D17758F98C3B717E0
:100C100002409443B71702403707FCFF7D17758FDA
:100C200098C3B717024091079443B7170240910742
:100C3000370701DF7D17758F98C3B7170240938779
:100C4000C70223A00700B71702409443B71702401A
:100C50003707F7EA7D17758F98C3B7170240A107CA
:100C60003707FF0098C3813F0100B2402244410191
:100C70008280011122CE0010232604FE232404FECC
:100C8000B71702409443B71702404167558F98C386
:100C90008327C4FE85072326F4FEB7170240984336
:100CA000B7070200F98F2324F4FE832784FE99E717
:100CB0000327C4FEC167FD17E31CF7FCB71702400A
:100CC0009843B7070200F98F91E301A0B7170240DC
:100CD00013874700B71702409107184398C3B71707
:100CE000024013874700B71702409107184398C383
:100CF000B717024091079843B7170240910713674F
:100D0000074098C3B717024091079443B7170240B2
:100D100091073707C4DF7D17758F98C3B717024057
:100D200091079443B7170240910737072920558F41
:100D300098C3B71702409387C7029443B71702407E
:100D40009387C7023D77758F98C3B7170240938783
:100D5000C7029443B71702409387C702416713073E
:100D600017F1558F98C3B71702409443B717024045
:100D700037070004558F98C30100B7170240984306
:100D8000B7070008F98FF5DBB71702409443B71790
:100D9000024037070010558F98C30100B717024073
:100DA0009843B7070020F98FF5DBB717024094434B
:100DB000B717024037070001558F98C30100B717D6
:100DC00002409843B7070002F98FF5DBB7170240DE
:100DD00091079843B71702409107719B98C3B717C3
:100DE000024091079843B717024091071367270005
:100DF00098C30100B717024091079C43A18BFDDB0C
:100E00000100724405618280411106C622C40008B7
:100E1000612013052060F53913050060DD39854632
:100E20000D469145B717014013850780AD3C8545B8
:100E3000B7170140138507807D312A878547E3185E
:100E4000F7FE1305200369208545B7170140138578
:100E5000078051392A8785476314F70293050008F4
:100E6000B717014013850780BD392A878547998FB9
:100E70003E8693050008B7170140138507802D3182
:100E800001008545B717014013850780A9392A87D6
:100E90008547E308F7FE61BF411106C622C400087A
:100EA00013052060BD31930600080D46C145B717F4
:100EB000014013850780C53A93050008B717014024
:100EC00013850780C1360100B2402244410182806F
:100ED0005D7186C6A2C4CAC2CEC052DE56DC80088E
:100EE000232EA4FAEFF03F8B232CA4FC232EB4FC7A
:100EF000EFF07F8A2328A4FC232AB4FC032704FDF7
:100F0000832784FD6319F700032744FD8327C4FD6D
:100F10006313F700F1BFEFF01F88AA862E878325A1
:100F200004FD032644FDB387B6403E8533B5A600D5
:100F30003308C7403307A8403A882324F4FC23260B
:100F400004FD032584FC8325C4FCEF00903E2A8920
:100F5000AE89B707002083A707063E85EF0010374C
:100F6000B707000803A6872783A6C7279920AA8763
:100F70002E883E8AC28A0325C4FBEF003035AA873B
:100F80002E883E86C2865285D685492DAA872E8810
:100F90003E86C2864A85CE85F923AA87E3CD07F629
:100FA0000100B640264416498649725AE25A6161E8
:100FB0008280397193D7450122DC4AD856D22A89DA
:100FC0001394C50006DE26DA4ED652D45AD05ECE31
:100FD00013F5F77F318093DAF501630B0510930762
:100FE000F07F630BF514135AD9010E0433648A00A1
:100FF000370A8000336A4401131B3900930415C07B
:101000000144814B13D846011399C6001378F87F29
:10101000B2881359C90093D9F601630E08089307E3
:10102000F07F6300F8041357D6010E0933692701D6
:10103000130818C0B70780003367F900931836000B
:10104000B38404418145BD4733C83A0163E4871A3C
:1010500097F7FFFF938707230A043E9410403E96BC
:1010600002863367C90093841480631207101364E7
:10107000240081488945C1BF1306F07F814701479D
:10108000B207F25062545206B1837E08D18FB3E7A3
:101090000701D2544259B259225A925A025BF24B7A
:1010A0003A85BE852161828001481306F07FB7072B
:1010B00008000147F1B73367C9004DC7630809301D
:1010C0004A8532C4EF00703F2246130755FFF547AB
:1010D000930685FF998F3319D900B357F60033E78C
:1010E0002701B318D60026959304353F8145A1BF4B
:1010F000336A240163030A0636C632C46306042A2F
:101100002285EF00903B2246B246AA84130755FF82
:10111000754A138B84FF330AEA4033146401335A4F
:101120004901336A8A00331B69011305D0C0B30437
:1011300095400144814BF9B5336A240163180A00D4
:101140002144014B9304F07F894B6DBD228A4A8B69
:1011500031449304F07F8D4B75B51144014B8144AC
:10116000854B4DB51364140081488545E9BD136472
:1011700034004A878D45C1BD630A052E8547898F96
:101180009306800363DDF632014681470147CDBDFA
:10119000CE868947638DF53A8D47E387F5F085471D
:1011A0003688E383F5FE1385F43FE357A0FC93F7FD
:1011B00078006396072893D638009317770063D892
:1011C0000700B70700FFFD177D8F138504409307C5
:1011D000E07FE3C3A7EA1316D70193179700B18303
:1011E0003367D6001376F57F61BDD6865287DA88DD
:1011F000DE8545B763614723630DEA20DA86FD1477
:101200005284014B9317870013D388013363F30093
:10121000935E0301B357D403131F0301135F0F0140
:1012200093D50601139E88003374D4033307FF025D
:101230004204C18D63FBE5009A951386F7FF63EEC8
:10124000652663FCE526F9179A95998D33D7D50362
:10125000C206C182B3F5D5033306EF02C205D58DB0
:1012600063FBC5009A959306F7FF63E6652463F474
:10127000C52479179A95C20741645D8F9307F4FFDF
:101280003375F70093580701935F0E01B377FE00A3
:10129000B302F502B386C540B383F80293D50201C9
:1012A0003386AF021E962E963385F803637376005D
:1012B0002295C168FD189355060133761601420642
:1012C000B3F81201AA95469663E6B6126382B61287
:1012D0003306CB408D8E333BCB00338B6641138579
:1012E000F43F630C6317B358DB0393550601337B5C
:1012F000DB03B3061F03420B33EB6501637BDB00AB
:101300001A9B9385F8FF636D6B20637BDB20F918D4
:101310001A9B330BDB40B356DB0342064182337B1F
:10132000DB03330FDF02420B33666601637BE601AA
:101330001A969385F6FF6367661E6375E61FF916B6
:101340001A96C208B3E8D8009395080193D2080111
:10135000C181B38EF5023306E641B385BF0293D651
:101360000E01B387F202BE95AE96B38F5F0263F4AF
:10137000F600C167BE9FC165FD1593D70601ED8ECE
:10138000C206B3FEBE00BE9FF696637FF6091A96AC
:101390009387F8FF6369661A6368F619630FF61B93
:1013A000BE8893E8180011B54A85EF0010111307A5
:1013B0005501F145930405022246B246E3DAE5D42D
:1013C000130485FF331A8900014B85B3328532C47B
:1013D000EF00B00E13075501F146AA872246130508
:1013E0000502E3D6E6CEE1173317F6008148E5B9EA
:1013F000E370CBEE729B3335CB011A95AA96130599
:10140000F7FF6378D30263E6B6106382D5102A87AC
:10141000C1B5E3651BDF93551B009316FA01135406
:101420001A00CD8E7E0BF9BBE31DF6F7E38F06D6CF
:10143000B9BFE31ED3FCE378CBFD2A8751BD93F7F8
:10144000F8009146E389D7D693B7C8FF9386480042
:1014500093C717008D823E978DB381468547E34C35
:10146000A0FEFD58E31C05D0930410C085471385EA
:10147000E441B316A70033D6F8003395A800D18E07
:101480003335A000C98E13F676003357F70001CE2E
:1014900093F7F60011466388C70093874600B3B6FA
:1014A000D7003697BE869317870063D80704054692
:1014B00081470147F1B636877DBBB28779B3FD46D8
:1014C000E3D7F6FA0556098E930600023356C70095
:1014D0006388D7009387E443B317F700B3E8F800B5
:1014E000B3361001D18E13F67600814701CE93F703
:1014F000F60011460147E392C7FA931797001316B7
:10150000D701B18313D73600518F014695BEE370E2
:10151000CBF0729B3335CB011A957917AA964DBB48
:10152000AE88C5BBAE8631BD93171E0033BEC70162
:1015300072931A96F9183E8EE315F6E7E307DEC6B6
:1015400093E818009DB1BE88E30AF6FF99BD36887E
:101550001306F07F8147014725B6E367DEFCBE88AE
:10156000E310DEFE99B113D74501B7071000FD1750
:1015700013D846011377F77F9308F07F33FEB70047
:10158000AA8EF58FFD81328F1378F87FFD82630E6E
:101590001703630D180129E3B368AE00631F080049
:1015A0005D8E01EE0143638C080421A8B3E8C700F7
:1015B0000943639608046DD305A06384080463851A
:1015C000D50205438DCD7D531DA8B368AE000943F8
:1015D00063970802630AE802631408005D8E75D2FF
:1015E000E391D5FEE34FE8FC63490701E3EBC7FD58
:1015F000630FFE0001436374FE00F1D505431A85B5
:101600008280EDFE7D53E5BF5D8E79DACDBFE36A62
:10161000DFFB0143E3F5EEFFF5F175B739714AD809
:1016200013D945014ED652D456D29399C50006DE41
:1016300022DC26DA5AD05ECE1379F97F2A8A93D932
:10164000C90093DAF501630D090E9307F07F630477
:10165000F9181354D5018E09B36934013704800099
:1016600033E4890093143500130919C08149814B73
:1016700013D74601139AC6001377F77FB285135A22
:10168000CA0013DBF601630A07109307F07F6303B8
:10169000F7049357D6010E0A33EA4701130717C020
:1016A000B7078000B367FA00931536003A9981486E
:1016B00033C76A01BD463A851308190063E6361739
:1016C00017F6FFFF130606C08A09B29983A6090020
:1016D000B2968286B367CA001309F97F639707122F
:1016E00093E9290081458948E1B701479307F07FD5
:1016F0003704080081443204D20731807E075D8CB4
:10170000598CA285F250625426854259D254B2595E
:10171000225A925A025BF24B216182805A853E84A2
:10172000AE84C68B8947638BFB0E8D47E38FFBFA34
:1017300085472A87639AFB3881470144814465BF06
:1017400033E4A90055CC36C632C46389092A4E85D4
:10175000AD232246B246AA87130755FF75449384EA
:1017600087FF198CB399990033548A00336434018C
:10177000B3149A0013D746011309D0C0139AC600B8
:101780001377F77F3309F9408149814BB285135AAA
:10179000CA0013DBF601E31A07EEB367CA00A9C754
:1017A000630E0A22528532C4092B22462A879306E9
:1017B00055FFF547930587FF958F331ABA00B35746
:1017C000F600B3E74701B315B6003309E940130942
:1017D000D9C08148F1BD33E4A90001ECA14981449D
:1017E0001309F07F894B69B593E919008145854854
:1017F000C1B54E84AA84B1491309F07F8D4B8DBDCC
:10180000914981440149854BA5B593E93900D287B7
:101810008D4879BD89475685E399FBF02A87930760
:10182000F07F01448144C1BDC16E1386FEFF93D693
:10183000040113DE0501F18CF18D338695023383AB
:10184000B6029358060133059E021A95AA98B382F0
:10185000C60363F36800F692C16F1383FFFF33F58D
:10186000670093D30701B3F76800C20733736600BC
:101870003E933306950293D80801B387A602135FFF
:101880000601B3849302BE94FA94B38E760263F396
:10189000F400FE9E416A9307FAFF935F0401B3765A
:1018A000F400B3F9F4007D8EC1803384D502C209FF
:1018B000338FD401B299CE98B307DE02935E040150
:1018C000B385BF02AE97BE9E330EFE0363F3BE0028
:1018D000529EC1679385F7FF33F6BE006D8C4206BA
:1018E000229693DE0E01B305D502769E3385AF02B4
:1018F00013D40501B386D302AA96A296B38FF3033D
:1019000063F3A600BE9F41657D15B3F7A600C2072D
:101910006D8DAA97B3855800B3B93501FA97B29582
:101920003384370133B6C500B30EC4013385CE000E
:1019300033343401B3B7E701C18F33BECE0113D4C2
:1019400006013336C5003E943366CE00939495006D
:1019500032947E94B3E46400260493567501B33444
:101960009000DD8193179500CD8C558CDD8C9317FD
:10197000740063DB070093D7140085889316F40185
:10198000DD8CD58C058042899307F93F6357F008B9
:1019900093F6740081CE93F6F40011466388C60076
:1019A00093864400B3B496002694B68493167400CC
:1019B00063D80600B70700FFFD177D8C9307094029
:1019C0009306E07F63CDF60E93D634009314D401D2
:1019D0002604D58C318093F7F77F31BB328532C432
:1019E000E92C93065501F147130705022246E3D27D
:1019F000D7DC6115B317A6008145C1BB7D2C130749
:101A00005501F145930705022246B246E3D8E5D4D5
:101A100061153314AA008144B1BB85469D8EB1E7A0
:101A20001309E941B3972401B3D4D4003319240135
:101A3000B337F000B3649900DD8C93F77400B356AC
:101A4000D40081CF93F7F40011466388C7009387D1
:101A50004400B3B49700A696BE849397860063D8DB
:101A6000070485470144814479B113068003E345A7
:101A7000D6CC7D46E356D6FA0556B307F640930515
:101A800000023356F4006387B6001309E943B31725
:101A90002401DD8CB3349000D18C93F674000144A2
:101AA00099CA93F7F40011468146E392C7FA13945A
:101AB00096003180F6068D80D58C81472DB993072D
:101AC000F07F0144814405B942897DBD15CD4111A6
:101AD00022C406C62A84D5229306E041898EA947EE
:101AE00093F6F67F63DCA7025515B317A400B2077F
:101AF000B1830147B2402244B207D206B183D58FE9
:101B00003A85BE854101828081478146B207D2066F
:101B1000B1830147D58F3A85BE8582802D47098FD5
:101B2000B357E400B207130755013317E400B1833C
:101B3000D1B7B367B5009DCF411122C426C24AC0B8
:101B400006C6AA842E892E84A1C12E85BD229306A5
:101B5000E043898E9307304363C4D7069317C900C7
:101B60002D46268793F6F67FB183635CA60C130699
:101B700055FF0DA881478146B207D206B1830147C0
:101B8000D58F3A85BE8582800D2A2A869306E0434A
:101B900013050502898E1307A00293F6F67F634CA6
:101BA000A70C55061307B002098FB317C90033D726
:101BB000E4005D8F9317C700B1833397C40051A031
:101BC0009307604363D9D702130785019307850301
:101BD0006347070C3396E40001472144098C518F79
:101BE000930704FE3337E00063CF0708B354F900CE
:101BF0008147D98C3E84A14763C1A706370780FF80
:101C00007D1713F67400B377E40005C613F6F400ED
:101C100091456300B60213864400B3349600A6973C
:101C20009395870063D905089306F043F98F898E51
:101C3000B2841397D7018D80A607458FB18393F6A1
:101C4000F67FB2402244B207D206B183D58F9244C8
:101C500002493A85BE85410182801307800213063E
:101C600085FF098F33D7E400B317C4003364F7004E
:101C7000B394C40061B7930756FFB397F400B2075B
:101C8000B18301477DBF7D4693171900018EB3973D
:101C9000C700B3D48400DD8CB357890099BF7D465B
:101CA0001D8E13D714003357C7003316F900598E11
:101CB0003397F4001DB7B284ADBFC167637EF502F0
:101CC0009307F00F1307000263ECA70097E7FFFFED
:101CD00093874763AA9703C507003305A74082800F
:101CE000218197E7FFFF9387E761AA9703C5070064
:101CF00061473305A7408280B7070001636EF50096
:101D0000618197E7FFFF9387E75FAA9703C5070005
:101D100021473305A7408280418197E7FFFF9387E2
:101D2000675EAA9703C5070041473305A740828035
:101D3000AA8581460146014519AA411122C406C659
:101D400097070000938767192A8499C38145612208
:101D5000970700009387072588431C5591C38297F6
:101D60002285EFE0EFE94111970700009387C72331
:101D700022C417040000130424231D8C26C206C6A7
:101D80000984BE8419E42244B240924441016FE0C8
:101D90001F9D7D1493172400A6979C438297DDB75F
:101DA0004111970700009387272022C417040000E1
:101DB0001304841F1D8C26C24AC006C609848144B0
:101DC0003E8963988402EFE0BF97970700009387EE
:101DD000A71D170400001304241D1D8C09848144D1
:101DE0003E89639F8400B2402244924402494101EB
:101DF000828093972400CA979C4385048297D1B729
:101E000093972400CA979C4385048297D9BF97E78C
:101E1000FF1793876725B2862E86AA85884309A077
:101E2000411122C42A842E85B285368623AC0188CE
:101E300006C6EFE02FE6FD576317F500938781890B
:101E40009C4391C31CC0B24022444101828097E769
:101E5000FF179387A7219C432A8E9DE317E7FF175F
:101E60001307072197E7FF1723A2E72017E5FFF7DE
:101E700013054519BA8709C51C4123AAF188BA87F9
:101E8000D8437D487D556347E804630E0E0203A8DE
:101E900087086301080493182700C29823A0C8008C
:101EA0000323081005463316E6003363C3002320DE
:101EB000681023A0D80889466317DE0083264810DF
:101EC000558E2322C810930617000A07D4C3BA9769
:101ED0008CC701458280797152CC56CA5AC85EC6F9
:101EE00006D622D426D24AD04ECE62C42A8B2E8A5F
:101EF00097EAFF17938A8A17854B03A40A0011C833
:101F00004440832984081389F4FF8A04A294635E01
:101F10000900B250225492540259F249624AD24AFC
:101F2000424BB24B224C45618280630E0A0063959E
:101F300009007D19F114E1BF93172900CE9783A7FB
:101F40000708E39847FF5840DC407D1763182703D4
:101F500023222401F9DF032C44006388090083A6AF
:101F6000091033972B01F98E89EE8297584083A789
:101F70000A00E31487F9E30EF4FA41B723A2040040
:101F8000D1BF93162900CE968C4283A64910758F37
:0E1F900001E75A858297D9BF2E858297C1BF7F
:041FA000000000201D
:101FA400000000000000000000000000000000002D
:101FB400000000000000000000000000000000001D
:101FC400000000000000000000000000000000000D
:101FD40000000000000000000000000000000000FD
:101FE40000000000000000000000000000000000ED
:101FF40000000000000000000000000000000000DD
:0820040000F36F06000000204C
:040000050800015C92
:00000001FF
